:020000002BC013
:10000200FECFFDCFFCCFFBCFFACFF9CFF8CFF7CFA2
:10001200F6CFF5CFF4CFF3CFF2CFF1CFF0CFEFCFD2
:10002200EECFEDCF1027E80364000A0001000010B4
:100032000001100001006701414D323331350000EB
:1000420080C0020004003800070060013A0002008C
:100052007C0142000000F894EE27ECBBF1E0FBBF0C
:10006200EBBFE5BF8DE0A2E0BB27ED938A95E9F7F0
:1000720080E094E0A0E6ED930197E9F7E4E4F0E094
:1000820085919591009761F0A591B5910590159094
:10009200BF01F00105900D920197E1F7FB01F0CF4E
:1000A200EFE5EDBFE4E0EEBFC0E6D1E000C012D064
:1000B20024D1A0E1E7D0A89A7894E0E0EA93A1E005
:1000C200A1D0A0E6B1E0CDD01DD0A0EDB7E066D1C1
:1000D200F4CFFFCFE4E0E7BBE0E0E8BBE1E0E4BB64
:1000E200E0E0E5BBE1BBE2BB0895AA931A93A981C4
:1000F200AA3018F4E981E05D02C0E981E95C1E2FB3
:1001020018818BC01A9310E0FDD0A8EB2FD1A2E08A
:10011200E2D007D1F7D0A8EB29D1A3E027D1A0E004
:1001220025D1A4E023D1FDD0AAE0D5D0EBD0A9EB14
:100132001DD110E0183050F4D0D0FF93EF93A1E01E
:10014200FAD0AF91BF91EC931F5FF4CFEAD0A091A8
:100152006701A33019F0E0E0F0E037C0A091680138
:10016200A43019F0E0E0F0E030C010E0183050F4B4
:10017200B4D0FF93EF93A081B8DFAF91BF91EC931E
:100182001F5FF4CFE0E0EA93A0E03CD0D20169D057
:10019200EFE0EA93A1E036D0A0917B01A05D4DD0C3
:1001A200E0917B01EF5FE0937B01A0917B01AA309C
:1001B20010F0A89801C0A89AA0917B01A43618F06B
:1001C200E0E0E0937B01E1E0F0E019910895AA9369
:1001D200E8B3E07FAE2FE881E295EF70EA2BE8BB4F
:1001E20081D0979A7FD097987DD073C0AA93A88127
:1001F200EEDFE881E295E883A881E9DF85E88A9568
:10020200F1F767C0AA93E881F0E0E458FE4FE0817D
:10021200A981AE0FEBDF7980688022960895A2E073
:10022200E5DFA3E058D0ACE0E1DFA1E0DFDFA3E04F
:1002320052D0E0E06E2E7E2E0895AA93A881AA30B5
:1002420011F0791440F0E0E0EA936394A62DDADF2E
:10025200A881AA30F1F17394959AA881C7DF959885
:1002620038C0BA93AA931A93A981BA81ED91A9834E
:10027200BA831E2FE03019F0A12FDFDFF5CF1881EE
:1002820023960895AA93E7B3EF60E7BB8F9A8D9AFE
:100292008E9A9798959896989880E881E058E0937E
:1002A2007E01E881E054E0937F01A4E114D01ED0E6
:1002B2001DD01CD0A0E28BDF88EC90E00197F1F713
:1002C200A8E294DFA4E092DFA5E890DFA6E08EDF4B
:1002D200A6DF21960895B0E061C0E12FF0E0E95970
:1002E200FE4F08958DE08A95F1F70895A0E36FDF40
:1002F20088EC90E00197F1F70895AD98AC98A59A33
:10030200A49815C0A498A598EE2700009C9B089578
:100312009D9B089504D0A49A02D0A59AE1E06BE1D6
:1003220007C0A49AA59A03D0A598F9DFA49865E31B
:100332006A95F1F7089578E0A598F1DF9D9BFECFCD
:10034200EEDF88949C990894A59AF1DFEE1F7A95C6
:1003520099F77A2F772311F4A49801C0A49ADFDFCA
:10036200A598E5DFA59ADBDFA498D9CF78E0AA0F9C
:1003720010F4A49801C0A49ADADFA598D0DF9D9B5F
:10038200FECFCDDFA59A7A9591F7A498C8DFA598FC
:10039200CEDFE1E09C99EE27A59AC1CF109639F005
:1003A20080ED97E00197F1F7A8951197C9F70895A5
:00000001FF
